:020000040000fa
:080000000002040000000000f2
:020000040000fa
:100400002fb120004efe20000e01880000000000e9
:100410000c000700604121000100200011000700ce
:10042000000020000000e000020032000000020096
:1004300000000000260a0200000000000040da0070
:100440000000fe004440a900002020000000e00061
:100450000300320000002000a00188004440a800f2
:100460000000060091018800800078000000eb0089
:1004700015003700e280400032a0b4009101ba00bc
:10048000e280400032a0b4009102ba00e280400055
:1004900032a0b4000002eb00472bde00f507b200eb
:1004a000602ce10004003a000059eb008301e900f0
:1004b000fdff3e00040037006128e100010032002a
:1004c0000082eb00040007001101ba000200e00006
:1004d000e8ff3a00000006003159ba008301e90044
:1004e0000c0032002159ba008301e90008003200f3
:1004f0000400e00003003a00e280400032a0b400b3
:10050000f5ff370011d9ba008301e900faff3a007c
:100510008100e800e180400032a0b4000000060045
:100520003600f800809fbe00829fbe00849fbe0000
:10053000869fbe00881f78000400fa0084e0a900ae
:10054000e056800080007800804a800000804000f3
:10055000e0568800f056800080007800904a8000c5
:1005600000804000f0568800005780000000e8003e
:10057000005788000057800063006000e00f5000c3
:1005800009003a00e0568000804e88000000eb0031
:10059000e0568800f0568000005288000000eb0012
:1005a000f056880087a0a800704e80004280de00d0
:1005b00080007800704e80004280de0078070700df
:1005c00000047800814a8000a055800000004000af
:1005d000730707000801780046070700000f78003e
:1005e000f03f20009e007800808f5000020036000f
:1005f000f03f2000000f780090558000e00f500081
:1006000002003a000000eb00000f78001e007800a6
:10061000104a8800914a8000804a80000080500083
:10062000100798009e009000904a80004400de0071
:100630000000e800808f500004003100904a8000e4
:100640004400de000000e80010079800904a800097
:1006500080007800008020004d0707001e019000f8
:100660002c070700000f78001e007800604088000b
:100670001e007800d04088000080fa004f04780007
:100680004f03be004f02be004f01be004f00be0030
:100690003600f900004006003600f800809fbe00da
:1006a000829fbe00849fbe00869fbe000600fa00a7
:1006b00087a0a900224e8000334e8000104e80009b
:1006c000800040002096200000804000100078004c
:1006d000cf80de000000510081805900204e88004c
:1006e000314e8800424e8000534e8000114e8000f3
:1006f00070022000808f500003003400104e8000f4
:100700008002b10002003700104e800068004000f7
:1007100080004000209620000080400010007800fb
:10072000cf80de000000510081805900404e8800db
:10073000514e8800104e8000814e80000001400024
:10074000209620000000410001087800104e800033
:1007500080004000209620000080400010007800bb
:100760006101b900204e8000314e8000020040003f
:1007700083804800204e8800314e8800104e800053
:10078000800040002096200000804000100078008b
:100790006101b900404e8000514e800002004000cf
:1007a00083804800404e8800514e8800104e8000e3
:1007b0000000e800104e8800114e8000f00220007a
:1007c000808f5000020034000000eb00104e8800c3
:1007d000b2518000c3518000a051800080004000d1
:1007e000409d20000080400010007800cf80de0097
:1007f0000000510081805900b0518800c15188002b
:10080000d2518000e3518000a1518000700220008d
:10081000808f500003003400a05180008002b1009e
:1008200002003700a05180006800400080004000b6
:10083000409d20000080400010007800cf80de0046
:100840000000510081805900d0518800e15188009a
:10085000a05180000152800000014000409d200016
:100860000000410001087800a05180008000400095
:10087000409d200000804000100078006101b90018
:10088000b0518000c15180000200400083804800c8
:10089000b0518800c1518800a05180008000400004
:1008a000409d200000804000100078006101b900e8
:1008b000d0518000e1518000020040008380480058
:1008c000d0518800e1518800a05180000000e8006c
:1008d000a0518800a1518000f0022000808f5000bc
:1008e000020034000000eb00a05188002255800077
:1008f00033558000105580008000400020a4200067
:100900000080400010007800cf80de000000510021
:10091000818059002055880031558800425580005b
:10092000535580001155800070022000808f5000c8
:1009300003003400105580008002b100020037002f
:1009400010558000680040008000400020a4200076
:100950000080400010007800cf80de0000005100d1
:1009600081805900405588005155880010558000fd
:10097000114a8000c208dd000001400020a42000d0
:100980000000410001087800105580008000400000
:1009900020a4200000804000100078006101b90010
:1009a00020558000315580000200400083804800bf
:1009b0002055880031558800105580008000400087
:1009c00020a4200000804000100078006101b900e0
:1009d000405580005155800002004000838048004f
:1009e0004055880051558800105580000000e800ef
:1009f0001055880011558000f0022000808f5000b3
:100a0000020034000000eb0010558800814e800089
:100a1000c0558000808f500005003400bacabf0066
:100a2000e14f500002003a00804e8000c05588001f
:100a3000814e8000e0558000808f50000e00340011
:100a4000becabf000040e800beeab7000040eb00ad
:100a5000bfeab700becabf00e44f50002100340017
:100a6000bacabf00e04f50001e003a0010c0b300e9
:100a7000baeab7001b003700814e8000e0558000c5
:100a8000808f500017003d000040eb00beeab70029
:100a9000bfcabf000040e800bfeab700bfcabf003e
:100aa000e44f50000f003400bacabf00e14f5000bd
:100ab0000c003a000040eb00baeab700c0558000d5
:100ac0004280de00904e8800c055800051502b00bf
:100ad0003b0607004280de00704e88000000eb00fd
:100ae000c0558800804e8000e05588000156800087
:100af000f0022000808f500009003c00804e8000f2
:100b00006101b900105680002156800002004000ab
:100b1000838048001056880021568800080037005e
:100b20001256800023568000804e8000cf80de0069
:100b3000000051008180590010568800215688001d
:100b4000005680000000e800005688000156800032
:100b5000f0052000808f5000130034000000eb00ef
:100b60000056880010568000215680004b09dd0099
:100b70004500de0000007100c588de00000078003e
:100b80003056880030568000e00f500003003d00d2
:100b9000305680000000ea00305688006000b8003f
:100ba00010568800215688004156800070022000af
:100bb000808f500009003c00804e80006101b90028
:100bc000505680006156800002004000838048003b
:100bd0005056880061568800080037005256800041
:100be00063568000804e8000cf80de000000510000
:100bf0008180590050568800615688004056800018
:100c00000000e8004056880041568000f0042000b3
:100c1000808f5000130034000000eb004056880025
:100c200050568000615680004b09dd004500de0013
:100c300000007100c588de00000078007056880052
:100c400070568000e00f500003003d007056800099
:100c50000000ea00705688006000b8005056880016
:100c60006156880081568000f01d2000808f500062
:100c70000300340020032000705588000a0037006c
:100c800070568000ea0f5000070034003156800093
:100c900070568000808f500003003d008056800019
:100ca0000000e800805688008156800010e22f0086
:100cb000808f500003003d00c00320007055880065
:100cc0000a00370030568000ea0f50000700340059
:100cd0007156800030568000808f500003003d0028
:100ce000805680000000e900805688007155800021
:100cf00020032000808f500031003a00204e8000f9
:100d0000314e8000525520000289b900020178005e
:100d10006002b900840178000301410053552000ae
:100d20000300b80001014100820078004288de0023
:100d3000cf80de0000007800604e8800b051800057
:100d4000c1518000525520000289b900020178008b
:100d50006002b9008401780003014100535520006e
:100d60000300b80001014100820078004288de00e3
:100d7000cf80de0000007800f05188002055800010
:100d800031558000a2aa20000289b9000201780032
:100d90006002b9008401780003014100a3aa200089
:100da0000300b80001014100820078004288de00a3
:100db000cf80de00000078006055880030003700ea
:100dc000404e8000514e8000626620000289b900ca
:100dd000020178006002b90084017800030141003b
:100de000636620000300b800010141008200780022
:100df0004288de00cf80de0000007800604e880070
:100e0000d0518000e1518000626620000289b90063
:100e1000020178006002b9008401780003014100fa
:100e2000636620000300b8000101410082007800e1
:100e30004288de00cf80de0000007800f05188009c
:100e40004055800051558000c2cc20000289b90075
:100e5000020178006002b9008401780003014100ba
:100e6000c3cc20000300b8000101410082007800db
:100e70004288de00cf80de000000780060558800e8
:100e8000604e8000702a8800714e8000100b200098
:100e9000808f500009003400714e8000f020200047
:100ea000808f500005003c00d04980000010a00059
:100eb000d04988000000eb0090568800714e8000f9
:100ec000600a2000808f500004003c00614e8000ca
:100ed00070092000808f500008003400614e8000af
:100ee000801e2000808f500007003400714e80006b
:100ef000a0212000808f5000030034009056800015
:100f00000000e8009056880091568000d02e200006
:100f1000808f500007003400d1498000d0ff2f009f
:100f200000806000d04988000000eb0090568800e7
:100f3000cc82a800f0498000e00f500013003c0074
:100f40000000eb0090558800f0518000a05688000a
:100f5000d049800062006000e00f500004003200c1
:100f6000f04980000000e800f049880002003700e6
:100f700000e22f00f0498800d1498000e0ff2f00f7
:100f800000806000d04988005a003700d0498000b6
:100f900062006000e00f500009003a0000e22f00fc
:100fa000f04988000000eb0090558800d14980008e
:100fb000e0ff2f0000806000d04988004d0037001e
:100fc000f1498000f0592000808f500020003c0043
:100fd000f04980000000e800f0498800f0498000f6
:100fe000cf80de00f2ff27000289b90002017800fd
:100ff0006002b9008401780003014100f3ff27007b
:101000000300b8000101410082007800025a20006c
:10101000c0040700000f78009e007800424a80005c
:10102000a056800000005100df040700a156800098
:101030000100400090558800d1498000e0ff2f005a
:1010400000806000d0498800cc82a80029003700c9
:10105000414a800090558000808f5000030034008a
:10106000404a8000905588000f003700414a8000b8
:1010700090558000808f50000b003d00b0568000de
:101080000000e800b0568800b1568000f00f200044
:1010900000806000e00f500003003a00905580008f
:1010a0000000e900905588009055800001fb2f005a
:1010b00080804000904e8000808f500003003c00f4
:1010c000904e80000005b00090558800b149800026
:1010d00090558000808f500002003c00b049800095
:1010e00090558800d04980000000a000d0498800b9
:1010f000cc82a90091558000f05180000080500002
:10110000100798001e009000e00f500003003c0004
:101110000000eb00c0568800060037009e009000db
:1011200020032000808f50000200340010002000b7
:10113000c0568800c0568000e00f50000500320005
:1011400000d027001041880000192000e0408800ee
:101150000400370000d0270010418800400620001e
:10116000e040880090558000e00f500003003a00f6
:101170006000b800f040880001418800f151800013
:10118000905580000101780080007800c081200027
:10119000b0030700a0558800104a80004600dd001b
:1011a00080007800008320008d040700200798004d
:1011b00080558000ae009000808f500003003d00fd
:1011c0002e009000805588000e003700805580006a
:1011d000ae009000808f50000a003400d05680008e
:1011e0000000e800d0568800d05680007f006000e4
:1011f000e00f500003003a00805580000000e80036
:1012000080558800805580004200dd008000780015
:101210002087200072040700204a88008055800043
:101220004200dd0080007800408b20006c04070045
:10123000304a8800204a800030408800204a8000e0
:10124000a0408800304a800000408800304a80007a
:1012500070408800e14a8000f04a80000080400031
:10126000e04a8800e14a800040662400808f5000f8
:101270000200340050f12f00f04a8800e14a80005b
:1012800090992300808f500002003c00b00e200097
:10129000f04a8800e14a800080558000420407003f
:1012a00000004000d04a8800004b8000e00f500052
:1012b00006003400f0702200000c8800004b800013
:1012c0000000e900004b8800020037008038210050
:1012d000000c88000080fa004f03be004f02be00e1
:1012e0004f01be004f00be003600f900004006006e
:1012f0003600f800809fbe00829fbe00849fbe0023
:10130000869fbe000200fa0091c0a900d04a80006a
:1013100080007800b0558000808f50000a003200b5
:10132000d04a80008000780080ff2f00008060009d
:1013300020208800202080000000d100402288006a
:10134000d04a8000b055880000198000604a8800ab
:101350002020800040408800614a8000104a8000c0
:101360000101780080007800008020006e030700f3
:10137000000f78001e007800302188001e007800e1
:101380008080d100e04980000080400090218800ea
:101390000603a9000080fa004f03be004f02be0002
:1013a0004f01be004f00be003600f90000400600ad
:1013b0003600f800809fbe00829fbe00849fbe0062
:1013c000869fbe000200fa0091e0a900201980006b
:1013d000704a880040198000804a880050198000b7
:1013e000904a880060198000504a880020208000c0
:1013f000b0408800714a8000104a800001017800e6
:1014000080007800e080200047030700000f78008c
:101410001e007800302288001e0078008080d100f5
:10142000e049800000804000902288000623a90047
:101430000080fa004f03be004f02be004f01be0005
:101440004f00be003600f900004006001400fa000c
:1014500000772100004088006000b800104088003c
:1014600021408800005f250030408800009920005e
:10147000404088000000eb00504088000080eb00f6
:101480006040880000772100704088006000b8004c
:101490008040880091408800005f2500a0408800bf
:1014a00000992000b04088000000eb00c040880098
:1014b0000080eb00d040880000d027001041880059
:1014c00040062000e04088006000b800f04088003e
:1014d00001418800c0492000a07f8800709320004f
:1014e000b07f8800c0492000c07f88000000eb006a
:1014f000d07f880060902b00e07f880090972100cb
:10150000f07f8800520107007201070066020700a1
:10151000c7010700dd01070007020700910207006d
:10152000bb030700cd0107008461a800210c8000e7
:1015300080ff2f00008060006000b300200c880056
:101540000000eb00000c880001e4a8000000eb00a4
:1015500060198800002c2100004b88000100370032
:10156000000000000e00780031040700e00f50007a
:10157000060034001e007800a04a88001e0090007b
:10158000b04a88002e009000c0498800c049800001
:101590006100600000407800e04f5000030032001e
:1015a00000e22f00f04988000d003700f14980006b
:1015b000f0592000808f500007003400b04a8000ae
:1015c0004600dd0080007800608f20008403070063
:1015d000404a880002003700b0498000404a880035
:1015e00020588000e00f5000ddff3a00f0518000ed
:1015f000000f7800704e8000100798006055800042
:1016000020079800504a8000300798002020800072
:1016100040079800204a800050079800304a800018
:10162000600798001041800070079800e04080003b
:10163000000f9800d0498000100f98000e0078002d
:1016400039040700c7ff37000040da000000fe0041
:020000040000fa
:0200000401f009
:04000c00f9ff0000f8
:020000040000fa
:0200000401f009
:040010005bff000092
:020000040000fa
:0200000401f009
:040014007fff00006a
:020000040000fa
:0200000401f009
:04001800ffff0000e6
:020000040000fa
:0200000401f009
:04001c00dcff000005
:020000040000fa
:10000800240b0000240b00000e100000f00f00006d
:10001800240b0000240b0000240b0000240b00001c
:10002800240b0000240b0000240b0000240b00000c
:10003800240b0000240b0000240b00009002000099
:10004800240b0000240b0000240b00008a1200007f
:10005800dc120000240b0000240b0000240b00001d
:10006800240b0000240b0000240b0000240b0000cc
:10007800240b0000240b0000240b0000240b0000bc
:10008800240b0000240b0000240b0000240b0000ac
:10009800240b00004c030000240b0000240b00007c
:1000a800240b0000240b0000240b0000240b00008c
:1000b800240b0000240b0000240b0000240b00007c
:1000c800240b0000240b0000240b0000240b00006c
:1000d800240b0000240b0000240b0000240b00005c
:1000e800240b0000240b0000240b0000240b00004c
:1000f800240b0000240b0000240b0000240b00003c
:10010800240b0000240b0000240b0000240b00002b
:10011800240b0000240b0000240b0000240b00001b
:10012800240b0000240b0000240b0000240b00000b
:10013800240b0000240b0000240b0000240b0000fb
:10014800240b0000240b0000240b0000240b0000eb
:10015800240b0000240b0000240b0000240b0000db
:10016800240b0000240b0000240b0000240b0000cb
:10017800240b0000240b0000240b0000240b0000bb
:10018800240b0000240b0000240b0000240b0000ab
:10019800240b0000240b0000240b0000240b00009b
:1001a800240b0000240b0000240b0000240b00008b
:1001b800240b0000240b0000240b0000240b00007b
:1001c800240b0000240b0000240b0000240b00006b
:1001d800240b0000240b000078090000d809000057
:1001e800240b0000240b0000240b0000240b00004b
:0801f800240b0000240b0000a1
:020000040000fa
:10020800240b0000240b00000e100000f00f00006b
:10021800240b0000240b0000240b0000240b00001a
:10022800240b0000240b0000240b0000240b00000a
:10023800240b0000240b0000240b00009002000097
:10024800240b0000240b0000240b00008a1200007d
:10025800dc120000240b0000240b0000240b00001b
:10026800240b0000240b0000240b0000240b0000ca
:10027800240b0000240b0000240b0000240b0000ba
:10028800240b0000240b0000240b0000240b0000aa
:10029800240b00004c030000240b0000240b00007a
:1002a800240b0000240b0000240b0000240b00008a
:1002b800240b0000240b0000240b0000240b00007a
:1002c800240b0000240b0000240b0000240b00006a
:1002d800240b0000240b0000240b0000240b00005a
:1002e800240b0000240b0000240b0000240b00004a
:1002f800240b0000240b0000240b0000240b00003a
:10030800240b0000240b0000240b0000240b000029
:10031800240b0000240b0000240b0000240b000019
:10032800240b0000240b0000240b0000240b000009
:10033800240b0000240b0000240b0000240b0000f9
:10034800240b0000240b0000240b0000240b0000e9
:10035800240b0000240b0000240b0000240b0000d9
:10036800240b0000240b0000240b0000240b0000c9
:10037800240b0000240b0000240b0000240b0000b9
:10038800240b0000240b0000240b0000240b0000a9
:10039800240b0000240b0000240b0000240b000099
:1003a800240b0000240b0000240b0000240b000089
:1003b800240b0000240b0000240b0000240b000079
:1003c800240b0000240b0000240b0000240b000069
:1003d800240b0000240b000078090000d809000055
:1003e800240b0000240b0000240b0000240b000049
:0803f800240b0000240b00009f
:020000040000fa
:1016500000000000c1c0000081c100004001000086
:1016600001c30000c00300008002000041c200006e
:1016700001c60000c00600008007000041c700004e
:1016800000050000c1c5000081c400004004000046
:1016900001cc0000c00c0000800d000041cd000016
:1016a000000f0000c1cf000081ce0000400e0000fe
:1016b000000a0000c1ca000081cb0000400b0000fe
:1016c00001c90000c00900008008000041c80000f6
:1016d00001d80000c01800008019000041d90000a6
:1016e000001b0000c1db000081da0000401a00008e
:1016f000001e0000c1de000081df0000401f00006e
:1017000001dd0000c01d0000801c000041dc000065
:1017100000140000c1d4000081d500004015000075
:1017200001d70000c01700008016000041d600005d
:1017300001d20000c01200008013000041d300005d
:1017400000110000c1d1000081d000004010000055
:1017500001f00000c03000008031000041f10000c5
:1017600000330000c1f3000081f2000040320000ad
:1017700000360000c1f6000081f70000403700008d
:1017800001f50000c03500008034000041f4000085
:10179000003c0000c1fc000081fd0000403d000055
:1017a00001ff0000c03f0000803e000041fe00003d
:1017b00001fa0000c03a0000803b000041fb00003d
:1017c00000390000c1f9000081f800004038000035
:1017d00000280000c1e8000081e900004029000065
:1017e00001eb0000c02b0000802a000041ea00004d
:1017f00001ee0000c02e0000802f000041ef00002d
:10180000002d0000c1ed000081ec0000402c000024
:1018100001e40000c02400008025000041e5000034
:1018200000270000c1e7000081e60000402600001c
:1018300000220000c1e2000081e30000402300001c
:1018400001e10000c02100008020000041e0000014
:1018500001a00000c06000008061000041a1000004
:1018600000630000c1a3000081a2000040620000ec
:1018700000660000c1a6000081a7000040670000cc
:1018800001a50000c06500008064000041a40000c4
:10189000006c0000c1ac000081ad0000406d000094
:1018a00001af0000c06f0000806e000041ae00007c
:1018b00001aa0000c06a0000806b000041ab00007c
:1018c00000690000c1a9000081a800004068000074
:1018d00000780000c1b8000081b900004079000024
:1018e00001bb0000c07b0000807a000041ba00000c
:1018f00001be0000c07e0000807f000041bf0000ec
:10190000007d0000c1bd000081bc0000407c0000e3
:1019100001b40000c07400008075000041b50000f3
:1019200000770000c1b7000081b6000040760000db
:1019300000720000c1b2000081b3000040730000db
:1019400001b10000c07100008070000041b00000d3
:1019500000500000c1900000819100004051000043
:1019600001930000c053000080520000419200002b
:1019700001960000c056000080570000419700000b
:1019800000550000c1950000819400004054000003
:10199000019c0000c05c0000805d0000419d0000d3
:1019a000005f0000c19f0000819e0000405e0000bb
:1019b000005a0000c19a0000819b0000405b0000bb
:1019c00001990000c05900008058000041980000b3
:1019d00001880000c04800008049000041890000e3
:1019e000004b0000c18b0000818a0000404a0000cb
:1019f000004e0000c18e0000818f0000404f0000ab
:101a0000018d0000c04d0000804c0000418c0000a2
:101a100000440000c18400008185000040450000b2
:101a200001870000c047000080460000418600009a
:101a300001820000c042000080430000418300009a
:101a400000410000c1810000818000004040000092
:020000040000fa
:101a50000000fa0090022000303a8800213a80000d
:101a6000f0f32f0000806000203a8800213a8000c7
:101a700000fe2f0000806000203a88000000000077
:101a8000113a80000002200000806000e00f50004a
:101a9000fbff320050c7a80050e7a90051a7a800db
:101aa000813a80000070200000807000803a880039
:101ab00051e7a80000000000813a800000002400e7
:101ac00000806000e00f5000fbff32000080fa0051
:101ad000000006000000fa00c9a2a900c962a9001e
:101ae000c882a900cc82a900cd62a800113a80006a
:101af000f0fb2f00008160006004200071052000d1
:101b00002374200080497800814978008249780058
:101b10002135800000fc2f00008060005000b300e1
:101b200020358800f1368000f00f2c0080806000a6
:101b30000030200000807000f0368800813780007f
:101b400000fc2f0080806000700220000080700088
:101b50008037880081378000f00f2c008080600083
:101b6000008022000080700080378800913780005c
:101b700000fc2f0080806000900220000080700038
:101b800090378800d1358000f00f2c0080806000f5
:101b90000000220000807000d0358800e135800010
:101ba00000fc2f0080806000100220000080700088
:101bb000e0358800e1358000f00f2c008080600067
:101bc0000020220000807000e0358800f1358000a0
:101bd00000fc2f0000806000c000b300f0358800da
:101be000d1368000f00f2c008080600000202100a2
:101bf00000807000d0368800113a80000004200078
:101c00000081700060042000710520002374200012
:101c10008049780081497800824978004de5a80024
:101c20004d05a8004c05a8000080fa000000060041
:101c30000000fa001021a90081088000f0fc2f00ac
:101c400000806000800888003082200060088800e2
:101c500011e1a8000080fa00000006000000fa0070
:101c60001221a90091088000f0fc2f000080600084
:101c70000040a000900888000071220070088800d1
:101c800013e1a8000080fa00000006000000fa003e
:101c90008460a90021058000f0ff2800808060009a
:101ca0000000230000807000200588009460a800d8
:101cb00084e0a90031058000f0ff280080806000ea
:101cc00000002300008070003005880094e0a80028
:101cd00087a0a90091058000f0f82f0080806000a7
:101ce00000022000008070009005880097a0a800e6
:101cf00091c0a900d1068000f08f2f008080600085
:101d00000060200000807000d0068800a1c0a800fc
:101d100091e0a900d1068000f0ff280080806000db
:101d20000000260000807000d0068800a1e0a80016
:101d30000080fa00000006000000fa001120800078
:101d400080ff2f00008060000010a000102088009d
:101d5000009920002020880023e4a80023c4a900c3
:101d60001121800000c02000008070001021880038
:101d700001218000f0f32f00808060000008200027
:101d800000807000002188000000eb0050218800d6
:101d90000000eb00602188002164a8002020800062
:101da0004200de0030218800202080004300de0059
:101db000902188000000eb004021880010102000d6
:101dc00020218800c0c32c00d021880043e4a80053
:101dd00043c4a9001122800000c0200000807000d0
:101de0001022880001228000f0f32f008080600024
:101df0000008200000807000002288000000eb0036
:101e0000502288000000eb00602288004164a80096
:101e1000202080004200de00302288002020800048
:101e20004300de0090228800804c20004022880081
:101e30001050200020228800c0c32c00d02288002f
:101e400083e4a80083c4a9001124800000c02000fe
:101e5000008070001024880001248000f0f32f001f
:101e6000808060000008200000807000002488004e
:101e70000000eb00502488000000eb006024880084
:101e80008164a8000000eb0040248800202080002e
:101e9000680050003024880030d0200020248800c2
:101ea0000080fa00000006000000fa000103a9000b
:101eb0000183a8000118800080ff2f0000806000cf
:101ec0000020a0000018880000e3a8000083a800fc
:101ed0000203a9000223a9000243a9000263a9008a
:101ee0000283a90002a3a90002c3a90002e3a9007a
:101ef0000603a9000623a9000643a9000663a9005a
:101f00005118800000fe2f00008060000020a0001b
:101f10005018880051188000f00f2e00808060005b
:101f20000050200000807000501888006118800068
:101f300000fe2f00008060005000b3006018880091
:101f400061188000f00f2e0080806000005020009b
:101f5000008070006018880001e3a8000080fa008b
:101f6000000006000000fa00012a8000f0f32f00b4
:101f7000808060000004200000807000002a88003b
:101f80004005a800f03f2000102a880041e5a80085
:101f9000212a8000f0f32f008080600000042000e0
:101fa00000807000202a88004405a800f03f20002f
:101fb000302a880045e5a800412a8000000c200056
:101fc00000807000402a88004805a8009035200055
:101fd000502a880049e5a8000080fa0000000600a9
:101fe0000f007800010180000100e10008003500c9
:101ff000c1b02000cf107800cf1878001170a10078
:102000008100e8008048eb008040a900ffff370016
:102010008040a900ffff37000040060001b120000a
:10202000cf107800cf1878001170a1008100e8006f
:102030008048eb00e1b02000220020009118110040
:102040000001eb00910819008060a900ffff370034
:1020500000400600881f78004400f800080f2000a8
:1020600028028800028250004522dd00000478002a
:102070000b00fc009290c3002880ca001800780072
:10208000400188001281c00040018000001c7800df
:102090003880cc005210c3001281c0000080cd00f7
:1020a00000f0a700000020004400f9004f04780071
:1020b00000000600881f78004400f800080f200088
:1020c00028028800028250004522dd0000047800ca
:1020d0001200fc009290c3002880ca00180078000b
:1020e000400188001281c00040018000001c78007f
:1020f0003880cc005210c3001201c0000406cd008d
:10210000f5ff27001281c0000480cd005290c3006b
:10211000040c78001281c0000080cd004400f9005a
:102120004f04780000000600881f78004400f80083
:10213000080f200028028800000478006a04440088
:102140009802900005f8a30007003a000600fc0082
:102150001200c3001201c0000406cd008202780004
:102160001301c0000200cd00028250004522dd00b4
:10217000000478001400fc009290c3002880ca007c
:1021800018007800400188001281c00040018000e2
:10219000001c78003880cc005210c3001281c000af
:1021a0000480cd00000020000008e60004002000ac
:1021b00004f0a70004002000155c270005a0e6003d
:1021c00005027800b8027800040c78001201c00003
:1021d0000000cd004400f9004f0478000000060024
:1021e000881f78008a1f78004400f800080f20003c
:1021f00028028800000478000105780002027800b7
:102200000500fc004618c3000a38c1000209c400da
:102210001241c6000000cd0000147800020c7800c6
:102220004400f9004f0578004f04780000000600d4
:10223000881f78008a1f78004400f800080f2000eb
:102240002802880000047800010578000202780066
:102250000700fc004618c3004638c1004a18c400f5
:102260000638c6000249c4001241c6008007cd00ee
:10227000620554002a14780000147800480d780094
:10228000020c78004400f9004f0578004f047800f4
:1022900000000600100178004111dd00900190005f
:1022a0002002900030039000c0039000e482790087
:1022b00005035300e0835b0001b279000103430092
:1022c000e0834b003600980047009800e28141000f
:1022d0000298e6000300200013009800d000900050
:1022e0000131b800013ab9000201d0000480490070
:1022f000000006006010e100040032001100090037
:102300004288d8000100300000000600f0ff2f00d6
:1023100000000600810178006010e1000400320036
:10232000110009004208d80001003000000006003a
:10233000f0ff2700828169008381d200600048009d
:10234000000006006008e10004003200010178008e
:10235000110009000280d80000000600f0ff2f00e5
:10236000000006006008e10004003200010178006e
:10237000110009000200d80000000600f0ff27004d
:10238000810068008180d2006000480000000600e3
:102390000180b900000006000100b900000006003d
:1023a0000100b800000006000180b9000080d200e2
:1023b0008180d2000080d2006080480000000600ca
:1023c0000100b9000080d2006080480000000600d3
:1023d0000100b8000080d2006080480000000600c4
:1023e0004b09de004111dd0000014100920178003f
:1023f0001202900003025200c508dd000123b9005b
:102400000683d200e0834b000380430000000600f7
:102410000000fa00113a8000f0fb2f0000816000fc
:10242000600420007105200023742000804978009a
:1024300081497800824978002135800000fc2f0016
:10244000008060005000b30020358800f136800025
:10245000f00f2c00808060000030200000807000b1
:10246000f0368800113a80000004200000817000de
:10247000600420007105200023742000804978004a
:10248000814978008249780011118000f0f32f0013
:10249000008060001011880041058000f0ff2800d6
:1024a00080806000000021000080700040058800ee
:1024b0009560a80023e2a80023a2a900510580008e
:1024c00080ff2f00008060000000a0005005880001
:1024d0009580a8002002a900001180006000b300d0
:1024e0000011880020a2a9002062a900011180002b
:1024f000f0cf2f0000806000001188005001200004
:102500004011880021e2a8002342a8000080fa00c0
:1025100000000600809fbe000200fa00301180001b
:10252000000f78001011800066006000e00f50007e
:10253000030032002222a9002242a9001a0037001b
:1025400040588000e70f500017003c00f00f2000bb
:102550009e007800808f50000700360031588000c0
:102560001e007800004078008048780010002000ad
:10257000405888000c00370040588000e00f5000a1
:1025800009003400315880004058800080804000ad
:102590001e00780000407800804878004058800095
:1025a0000000e800405888008560a9000080fa001b
:1025b0004f00be0000400600809fbe000200fa00ef
:1025c0000a00370001588000105880000080400049
:1025d000104f7800105880000000e8001058880064
:1025e0009e4078000180fb00201188001058800078
:1025f000f50f500005003c00111180000020200064
:1026000000806000e00f5000eeff320010588000a4
:10261000f50f5000020034000000eb002058880045
:102620008580a9000080fa004f00be00004006002f
:102630000600fa002007980040588000e70f50007d
:1026400002003c000000eb00350037000080eb008a
:10265000100798000000eb00000f78001200370010
:102660001e009000c800de001e019000f00f200048
:1026700000016100335880001e0078000080410096
:10268000104078000080fb0000006900000140005d
:1026900080b228000000410010007800008068002f
:1026a000100798001e0fe8001e007800e70f50008a
:1026b000ebff34001e009000e00f500004003200d9
:1026c0000000eb00405888000080eb001400370049
:1026d0000000eb00000f78000b0037001e007800b0
:1026e00000004000ae0090008080400082af2000db
:1026f0001e0078000000400000004100100078003b
:10270000800878001e0fe8001e007800e20f5000dd
:10271000f2ff34000000eb00405888003000200039
:102720000080fa00000006000a00fa004007980046
:1027300020588000e00f5000020032000000eb0043
:10274000380037008580a9000080eb002058880001
:102750004e009000200798000080eb0010079800c2
:102760000000eb00000f7800170037002e009000eb
:102770001e00400090407800614798001e009000c5
:10278000c800de001e019000f00f20000001610073
:102790006e4090000080fb000000690000014000d6
:1027a00080b228000000410010007800008068001e
:1027b00010079800005880001e004000ee40900076
:1027c000014878001e0fe8001e007800f30f50004b
:1027d000e6ff360000588000f40040001e00900024
:1027e000004078008048780000588000f5004000e4
:1027f0001e0090004800de0000407800804878000d
:102800001000200010588800005880001040780008
:102810008080fb00001020000080700020118800e4
:0c282000100020000080fa0000000600fc
:020000040000fa
:10282c00300800008202000002000000f316f300e2
:10283c0016f31600f316db0015a21300d31151008a
:10284c00100c0f00f60d05000d320c00790bd400a6
:10285c000a410a00bd094500092e09002e092e0067
:10286c00092e09002e092e00092e09002e092e0012
:10287c00092e09002e092e00092e09002e092e0002
:10288c00092e0900301130001130110030113000c8
:10289c0011301100301130001130110030113000a6
:1028ac001130110030113000113011003011300096
:1028bc001130110030113000113011003011300086
:1028cc001130110030113000113011003011300076
:1028dc0011301100301130001130110070177000e0
:1028ec0017701700701770001770170070177000b2
:1028fc0017701700701770001770170070177000a2
:10290c001770170070177000177017007017700091
:10291c001788130088138800138813008813880005
:10292c0013881300881388001388130088138800f9
:10293c00138813002503250003250300250321001c
:10294c00031d030019031300030d03000903050005
:10295c0003030300ff02ff0002ff02000303090050
:10296c00030d030011031500031903001d032100bf
:10297c00032503002503250003250300250325005b
:10298c000325030025032500032503000000000098
:10299c00005500000000000000000000f055700021
:1029ac001700000000000000000000000000000004
:1029bc000000000000000000009009000040eb0047
:1029cc0000000000000000000000000000000000fb
:1029dc0000000000000000000000000000000000eb
:1029ec0000000000000000000000000000000000db
:1029fc0000000000000000000000000000000000cb
:102a0c0000000000000000000000000000000000ba
:102a1c0000000000000000000000000000000000aa
:102a2c00000000000000000000000000000000009a
:102a3c00000000000000000000000000000000008a
:102a4c00000000000000000000000000000000007a
:102a5c00000000000000000000000000000000006a
:102a6c00000000000000000000000000000000005a
:102a7c00000000000000000000000000000000004a
:102a8c00000000000000000000000000000000003a
:102a9c00000000000000000000000000000000002a
:102aac00000000000000000000000000000000001a
:102abc00000000000000000000000000000000000a
:102acc0000000000000000000000000000000000fa
:102adc0000000000000000000000000000000000ea
:102aec0000000000000000000000000000000000da
:102afc0000000000000000000000000000000000ca
:102b0c0000000000000000000000000000000000b9
:102b1c0000000000000000000000000000000000a9
:102b2c000000000000000000000000000000000099
:102b3c000000000000000000000000000000000089
:102b4c000000000000000000000000000000000079
:102b5c000000000000000000000000000000000069
:102b6c000000000000000000000000000000000059
:102b7c000000000000000000000000000000320017
:102b8c000090090000080000300000000000000068
:102b9c00b20a00003000000000000000f40f00003a
:102bac000c00000000000000e20a00001e00000003
:102bbc0000000000000b00000a00000002000000f2
:102bcc00e20a160000000000f80a000000000000f5
:102bdc000a0b0000080000000000000000000000cc
:00000001FF
