:020000040000fa
:080000000002040000000000f2
:020000040000fa
:10000800c4090000c4090000cc100000ae100000b4
:10001800c4090000c4090000c4090000c4090000a4
:10002800c4090000c4090000c409000090020000cf
:10003800c4090000c4090000c4090000a2030000ac
:10004800c4090000c4090000c4090000220f000010
:10005800740f0000c4090000c4090000c4090000ae
:100068002c120000c4090000c4090000c4090000e3
:10007800c4090000c4090000c4090000c409000044
:10008800c4090000c4090000c4090000c409000034
:10009800c4090000c4090000c4090000c409000024
:1000a800c4090000c4090000c4090000c409000014
:1000b800c4090000c4090000c4090000c409000004
:1000c800c4090000c4090000c4090000c4090000f4
:1000d800c4090000c4090000c4090000c4090000e4
:1000e800c4090000c4090000c4090000c4090000d4
:1000f800c4090000c4090000c4090000c4090000c4
:10010800c40900006c050000c4090000c40900000f
:10011800c4090000c4090000c4090000c4090000a3
:10012800c4090000c4090000c4090000c409000093
:10013800c4090000c4090000c4090000c409000083
:10014800c4090000c4090000c4090000c409000073
:10015800c4090000c4090000c4090000c409000063
:10016800c4090000c4090000c4090000c409000053
:10017800c4090000c4090000c4090000c409000043
:10018800c4090000c4090000c4090000c409000033
:10019800c4090000c4090000c4090000c409000023
:1001a800c4090000c4090000c4090000c409000013
:1001b800c4090000c4090000c4090000c409000003
:1001c800c4090000c4090000c4090000c4090000f3
:1001d800c4090000c4090000c4090000c4090000e3
:1001e800c4090000c4090000c4090000c4090000d3
:0801f800c4090000c409000065
:020000040000fa
:10020800c4090000c4090000cc100000ae100000b2
:10021800c4090000c4090000c4090000c4090000a2
:10022800c4090000c4090000c409000090020000cd
:10023800c4090000c4090000c4090000a2030000aa
:10024800c4090000c4090000c4090000220f00000e
:10025800740f0000c4090000c4090000c4090000ac
:100268002c120000c4090000c4090000c4090000e1
:10027800c4090000c4090000c4090000c409000042
:10028800c4090000c4090000c4090000c409000032
:10029800c4090000c4090000c4090000c409000022
:1002a800c4090000c4090000c4090000c409000012
:1002b800c4090000c4090000c4090000c409000002
:1002c800c4090000c4090000c4090000c4090000f2
:1002d800c4090000c4090000c4090000c4090000e2
:1002e800c4090000c4090000c4090000c4090000d2
:1002f800c4090000c4090000c4090000c4090000c2
:10030800c40900006c050000c4090000c40900000d
:10031800c4090000c4090000c4090000c4090000a1
:10032800c4090000c4090000c4090000c409000091
:10033800c4090000c4090000c4090000c409000081
:10034800c4090000c4090000c4090000c409000071
:10035800c4090000c4090000c4090000c409000061
:10036800c4090000c4090000c4090000c409000051
:10037800c4090000c4090000c4090000c409000041
:10038800c4090000c4090000c4090000c409000031
:10039800c4090000c4090000c4090000c409000021
:1003a800c4090000c4090000c4090000c409000011
:1003b800c4090000c4090000c4090000c409000001
:1003c800c4090000c4090000c4090000c4090000f1
:1003d800c4090000c4090000c4090000c4090000e1
:1003e800c4090000c4090000c4090000c4090000d1
:0803f800c4090000c409000063
:020000040000fa
:100400004f9820000efe20000e0188000000000022
:100410000c000700802c21000100200011000700c3
:10042000000020000000e000020032000000020096
:100430000000000084070200000000000040da0015
:100440000000fe004440a900002020000000e00061
:100450000300320000002000a00188004440a800f2
:100460000000060091018800800078000000eb0089
:1004700015003700e280400032a0b4009101ba00bc
:10048000e280400032a0b4009102ba00e280400055
:1004900032a0b4000002eb00472bde00f507b200eb
:1004a000602ce10004003a000059eb008301e900f0
:1004b000fdff3e00040037006128e100010032002a
:1004c0000082eb00040007001101ba000200e00006
:1004d000e8ff3a00000006003159ba008301e90044
:1004e0000c0032002159ba008301e90008003200f3
:1004f0000400e00003003a00e280400032a0b400b3
:10050000f5ff370011d9ba008301e900faff3a007c
:100510008100e800e180400032a0b4000000060045
:10052000809fbe00821f78000200fa0080198000c0
:1005300080448800a0198000904488008044800096
:10054000f4004000904480003007b000808f5000dd
:100550000a00340080448000f400400050458000d0
:10056000a003b000808f500004003400804480005d
:1005700074004000b04488001500370090448000ab
:1005800031072000808040008044800074004000db
:10059000808f50000b003400904480003107200011
:1005a0008080400050458000a003b000808f500044
:1005b00004003400904480003007b000b04488004c
:1005c0000300370050458000a003b000b04488000d
:1005d000b144800050132000808f50000700340089
:1005e000b144800080182000808f500003003c0040
:1005f00000652400302388000d003700b1448000de
:1006000090182000808f500007003400b144800013
:1006100050222000808f500003003c00c0bc250009
:100620003023880002003700c04b230030238800ad
:1006300069c9bf000040e80069e9b70069c9bf00a7
:10064000e14f50003a0034000040eb0069e9b70088
:10065000a0448000e10f500034003600a044800028
:1006600080407800e0cfb30000c0600010479800e1
:100670000040eb00004f7800050037001e4fe800f7
:100680001e4090000000fb000080d1001047980041
:100690001e4090000000fb0061006000e00f500071
:1006a000f6ff32006ac9bf000040e8006ae9b700ff
:1006b0006ac9bf008000fb001e00fb000000400074
:1006c000808f50000b003500cd02a8006ac9bf0022
:1006d0008000fb001e00fb000080e80000004000de
:1006e000808f5000120035000040eb006ae9b7002f
:1006f0000f003700601680004800de006140600097
:100700000004a200614060000080fb006100600006
:100710004800dd0062168000f1ef2f0081006100cb
:10072000008070006016880001003700cd02a8002c
:100730008460a9000080fa004f0178004f00be00dd
:10074000004006003600f800809fbe00829fbe0079
:10075000849fbe00869fbe000a00fa0084e0a900c4
:10076000704380000001780001ff2000808120009c
:10077000cc060700d0448800d045800000017800f6
:1007800081ff2000c0812000c6060700e0448800e9
:10079000d04580004600dd00800078000082200007
:1007a0000f07070010079800f04580009e0090009a
:1007b000808f500003003d001e009000f04588002f
:1007c0000e003700f04580009e009000808f5000a2
:1007d0000a003400304b80000000e800304b8800f5
:1007e000304b80007f006000e00f500003003a00b3
:1007f000f04580000000e800f0458800504380008c
:10080000e00f50000a003a00c045800040438800d5
:100810000000eb00d04388006000b800104488005e
:10082000214488000000eb00304388002500370099
:1008300031438000f0052000808f50001e003c00f6
:10084000304380000000e8003043880030438000df
:10085000cf80de00f2ff27000289b9000201780094
:100860006002b9008401780003014100f3ff270012
:100870000300b80001014100820078000206200058
:10088000a406070020079800ae00900040438000b7
:100890003229200000005100c306070041438000b8
:1008a00001004000d04388006000b8001044880078
:1008b0002144880003003700004480003029b00044
:1008c000d043880001458000004680000080400041
:1008d000004588000145800040662400808f50005c
:1008e0000200340050f12f000046880001458000ce
:1008f00090992300808f500002003c00b00e200031
:100900000046880001458000f0458000a6060700eb
:1009100000004000f044880068c9bf000040e800c3
:1009200068e9b7008196200091407800f0c2b300da
:1009300080cf5000080034000040eb0068e9b700a9
:10094000604480007144800061004000e080480005
:100950006044880071448800c1458000e020200088
:10096000808f5000030034006000b80060448800ad
:1009700071448800e1448000a01d2000808f500059
:1009800003003c006000b8006044880071448800a7
:100990004044800000027800d04480006101b9002a
:1009a0004a18dd00c610de00810070004a10dd002c
:1009b000040178004f060700000f7800f03f200088
:1009c0009e007800808f500002003600f03f20002b
:1009d000000f780050438000e00f500002003a0002
:1009e0000000eb00000f78001e007800f043880044
:1009f000f04380004600dd0080007800c025210023
:100a00006f06070030248800b0198000e04388009a
:100a1000e0438000fe005000f04380000080500062
:100a2000300798003e0090006101b900104480003a
:100a30002144800002004000838048001044880068
:100a4000214488001044800021448000e00f5000c1
:100a5000e08f580003003d006000b800104488009b
:100a600021448800124480002344800000f02f00bd
:100a700031002000800f5100818f590004003400a4
:100a800000f02f003100200010448800214488002d
:100a900010448000214480004809dd004800de0049
:100aa00000007100c888de00400798002184200003
:100ab0004e00900042060700004488000080fa00c3
:100ac0004f03be004f02be004f01be004f00be00ec
:100ad0003600f900004006003600f800809fbe0096
:100ae000829fbe00849fbe00869fbe000800fa0061
:100af000012180000022800080807000000024001e
:100b0000008060008000ea00008070004f00de007e
:100b1000100798001e009000e00f50000400320003
:100b20002164a9004164a9002164a8004164a800cf
:100b3000004b8000e00f50000b003400004b8000a1
:100b40000001780001198000200320000088b9000e
:100b50000000780080005100e0b12f0000804000cc
:100b6000004b88000a0037001e009000e00f500084
:100b700007003200c1458000e0fc2f000088b9006a
:100b80008000780010b8200000804000004b8800f2
:100b900030208000e00f500054003a0040198000df
:100ba000d045880050198000c0458800c1458000ac
:100bb000d043800001017800800078000080200090
:100bc0009b050700000f7800d0458000417a2a007d
:100bd000fb0507001e0f4000404480009e00780087
:100be000808f50000200340040448000000f7800e5
:100bf0001e007800e00f500002003d000000eb00f6
:100c0000000f7800d0438000e00f500002003a004f
:100c10000000eb00000f78009e007800314488004f
:100c2000004b8000e00f5000050034000000eb0096
:100c3000702288000000eb00302288000e00370090
:100c4000104b8000e00f500007003400104b800074
:100c500070228800114b800090438000008040008b
:100c600030228800040037000000eb00702288006a
:100c70000000eb0030228800f04480008000780003
:100c8000204b8000808f50000d003200f044800027
:100c90008000780080ff2f00008060002020880006
:100ca000202080000000d100402288002020800009
:100cb0000000d10080228800f0448000204b880092
:100cc0008043800050228800104b80008080d1003b
:100cd000a043800000804000b022880020208000d7
:100ce0000000d10030208800560037001e00900020
:100cf000e00f500003003a00004b8000e00f50006e
:100d000003003400203220007043880002003700c6
:100d100000198000704388007143800030448000d7
:100d20000101780080007800c080200028050700bd
:100d300060438800c0458000cf80de002007980017
:100d4000310798002e009000be009000c500dd0025
:100d500000002000200798003107980072408000b2
:100d6000834080002e009000be009000800f510054
:100d7000818f590004003d002e009000be009000bd
:100d8000704088008140880061438000a0ee270009
:100d9000808f500002003400a0ee270060438800de
:100da00030448000e00f500002003a000000eb00e9
:100db000604388006043800080007800202080002d
:100dc0007f050700104b8800004b8000e00f5000ab
:100dd000050034000000eb00702188000000eb00eb
:100de000302188000e003700104b8000e00f5000cb
:100df00007003400104b800070218800114b8000e8
:100e000090438000008040003021880004003700bb
:100e10000000eb00702188000000eb00302188000a
:100e20008043800050218800104b80008080d100da
:100e3000a043800000804000b02188000000eb004b
:100e4000302088008b20a9000080fa004f03be00ec
:100e50004f02be004f01be004f00be003600f90039
:100e6000004006000000fa00d1448000601120001c
:100e7000808f50000700340023e4a80043e4a8005a
:100e8000cd82a800d582a8000000eb00c0448800f5
:100e90001b003700d144800000102000808f5000dc
:100ea00011003c00d0448000ff0f500007003c00c0
:100eb00023e4a90043e4a900cd82a900d582a900ba
:100ec00020002000c04488000d00370023e4a80063
:100ed00043e4a800cd82a900d582a900100020001b
:100ee000c04488000600370023e4a80043e4a800bb
:100ef000cd82a800d582a8000000eb00c044880085
:100f00000080fa00000006001600fa0000ee220041
:100f100090408800007d2000604088006000b8009c
:100f2000704088008140880000d027003040880051
:100f300000f42100004088006000b80010408800e4
:100f40002140880020322000404088000000eb0053
:100f50005040880000ff2000f14020000108780088
:100f600000ff2000f14020001100980000ff200049
:100f70008000eb002100980000ff2000d1812800b4
:100f80003100980080ff2000f14020000108780027
:100f900080ff2000f14020001100980080ff200019
:100fa0008000eb002100980080ff2000d181280004
:100fb00031009800f60107001602070069020700d9
:100fc000730207007d020700970207001303070062
:100fd000440307000e05070059030700010037000e
:100fe000000000009fff07000e80e800dc03070000
:100ff000e00f5000140034001e00900020458800cf
:101000002e009000304588003e009000404588004a
:101010004e009000504588005e00900060458800ba
:101020006e009000804588007e009000704588002a
:101030000e089000a04588001e089000904588008a
:101040002e089000b045880030458000c10d20007a
:10105000008f50001e007800e00f500002003d009d
:101060000000eb00000f78001e0078004500dd0056
:10107000000f7800d15020001e007800d004070037
:10108000000f78001e0078004300dd00000f78009c
:10109000203220001e0f50001e007800e00f50008c
:1010a00002003d000000eb00000f7800404480008b
:1010b0009e0f500004003d00404480000000e80006
:1010c0004044880006003700404480009e0f5000d6
:1010d00003003400404480000000e90040448800e0
:1010e000b045800061006000e00f500003003a004e
:1010f000a04480000000a000a0448800b14480000b
:1011000060222000808f500003003400a044800043
:101110000010a000a0448800624480007344800056
:10112000301f200001002000800f5100818f5900e6
:1011300003003400a04480000020a000a0448800e8
:10114000b04580006100600000407800e04f500032
:1011500004003200a1448000e0ff2f000080600006
:10116000a0448800b1448000b0212000808f50004e
:1011700004003c00a1448000d0ff2f0000806000ec
:10118000a0448800b045800062006000e00f50007d
:1011900004003a00a1448000b0ff2f0000806000ee
:1011a000a0448800a0448000e10f500005003e00ec
:1011b000e1458000e0ff2f0000806000e0458800ee
:1011c00003003700e04580000000a000e0458800f3
:1011d000a144800010002000e08f50000100320088
:1011e0000000eb005043880050438000e00f5000a7
:1011f00002003200b0242000010037000000eb00a4
:1012000070248800504380000040780061406000f6
:101210000080fb004f00dd0062168000f1ff270018
:1012200081006100008070006016880030458000f9
:1012300010488800404580002048880060458000b4
:101240003048880020458000404888005045800094
:10125000b009b1005048880080458000604888008f
:101260007045800070488800a04580008048880054
:101270009045800090488800b0458000a0488800d4
:101280000000eb00b0488800e0438000c0488800c0
:10129000f0438000d0488800104480002144800042
:1012a0004809dd004800de0000007100c888de004b
:1012b00000007800e04888000000eb00f04888005b
:1012c0000000eb00004988002020800010498800c1
:1012d000c044800020498800c04580003049880013
:1012e000d04580004049880080448000b009b100aa
:1012f0005049880090448000b009b10060498800de
:101300000000eb0070498800904080008049880010
:10131000604080009049880030408000a0498800eb
:1013200000408000b049880070438000c0498800b8
:10133000d0448000d0498800a0448000e049880063
:1013400040448000f049880060448000714480007f
:1013500000007800004a8800804b8000e00f5000b9
:101360001fff3a00c045800010079800d04580005c
:1013700020079800e0458000300798000e80e800c4
:101380003503070017ff37000040da000000fe00b9
:020000040000fa
:1013900000000000c1c0000081c100004001000049
:1013a00001c30000c00300008002000041c2000031
:1013b00001c60000c00600008007000041c7000011
:1013c00000050000c1c5000081c400004004000009
:1013d00001cc0000c00c0000800d000041cd0000d9
:1013e000000f0000c1cf000081ce0000400e0000c1
:1013f000000a0000c1ca000081cb0000400b0000c1
:1014000001c90000c00900008008000041c80000b8
:1014100001d80000c01800008019000041d9000068
:10142000001b0000c1db000081da0000401a000050
:10143000001e0000c1de000081df0000401f000030
:1014400001dd0000c01d0000801c000041dc000028
:1014500000140000c1d4000081d500004015000038
:1014600001d70000c01700008016000041d6000020
:1014700001d20000c01200008013000041d3000020
:1014800000110000c1d1000081d000004010000018
:1014900001f00000c03000008031000041f1000088
:1014a00000330000c1f3000081f200004032000070
:1014b00000360000c1f6000081f700004037000050
:1014c00001f50000c03500008034000041f4000048
:1014d000003c0000c1fc000081fd0000403d000018
:1014e00001ff0000c03f0000803e000041fe000000
:1014f00001fa0000c03a0000803b000041fb000000
:1015000000390000c1f9000081f8000040380000f7
:1015100000280000c1e8000081e900004029000027
:1015200001eb0000c02b0000802a000041ea00000f
:1015300001ee0000c02e0000802f000041ef0000ef
:10154000002d0000c1ed000081ec0000402c0000e7
:1015500001e40000c02400008025000041e50000f7
:1015600000270000c1e7000081e6000040260000df
:1015700000220000c1e2000081e3000040230000df
:1015800001e10000c02100008020000041e00000d7
:1015900001a00000c06000008061000041a10000c7
:1015a00000630000c1a3000081a2000040620000af
:1015b00000660000c1a6000081a70000406700008f
:1015c00001a50000c06500008064000041a4000087
:1015d000006c0000c1ac000081ad0000406d000057
:1015e00001af0000c06f0000806e000041ae00003f
:1015f00001aa0000c06a0000806b000041ab00003f
:1016000000690000c1a9000081a800004068000036
:1016100000780000c1b8000081b9000040790000e6
:1016200001bb0000c07b0000807a000041ba0000ce
:1016300001be0000c07e0000807f000041bf0000ae
:10164000007d0000c1bd000081bc0000407c0000a6
:1016500001b40000c07400008075000041b50000b6
:1016600000770000c1b7000081b60000407600009e
:1016700000720000c1b2000081b30000407300009e
:1016800001b10000c07100008070000041b0000096
:1016900000500000c1900000819100004051000006
:1016a00001930000c05300008052000041920000ee
:1016b00001960000c05600008057000041970000ce
:1016c00000550000c19500008194000040540000c6
:1016d000019c0000c05c0000805d0000419d000096
:1016e000005f0000c19f0000819e0000405e00007e
:1016f000005a0000c19a0000819b0000405b00007e
:1017000001990000c0590000805800004198000075
:1017100001880000c04800008049000041890000a5
:10172000004b0000c18b0000818a0000404a00008d
:10173000004e0000c18e0000818f0000404f00006d
:10174000018d0000c04d0000804c0000418c000065
:1017500000440000c1840000818500004045000075
:1017600001870000c047000080460000418600005d
:1017700001820000c042000080430000418300005d
:1017800000410000c1810000818000004040000055
:020000040000fa
:101790000000fa0090022000303a8800213a8000d0
:1017a000f0f32f0000806000203a8800213a80008a
:1017b00000fe2f0000806000203a8800000000003a
:1017c000113a80000002200000806000e00f50000d
:1017d000fbff320050c7a80050e7a90051a7a8009e
:1017e000813a80000070200000807000803a8800fc
:1017f00051e7a80000000000813a800000002400aa
:1018000000806000e00f5000fbff32000080fa0013
:10181000000006000000fa00113a8000f0fb2f00e3
:101820000081600060042000710520002374200006
:10183000804978008149780082497800213580000c
:1018400000fc2f00008060000040a00020358800d0
:1018500061378000f00f2c00808060000030200095
:1018600000807000603788008137800000fc2f0006
:101870008080600070022000008070008037880047
:1018800081378000f00f2c008080600000802200f3
:101890000080700080378800d1358000f00f2c0068
:1018a000808060000000220000807000d035880039
:1018b000e135800000fc2f008080600010022000d5
:1018c00000807000e0358800f135800000fc2f00ba
:1018d000008060005000b300f03588004137800080
:1018e00000fc2f0080806000d0022000008070008b
:1018f0004037880031378000f00f2c008080600076
:1019000000c022000080700030378800113a80004b
:101910000004200000817000600420007105200098
:10192000237420008049780081497800824978003a
:101930004de5a8004d05a8004c05a8000000eb00ef
:10194000702a8800c982a900d182a900c9e2a90031
:10195000c902a900c882a900cc82a9000080fa00af
:10196000000006000000fa000421a9002108800000
:10197000000320000080700020088800809127006c
:101980001008880005e1a8000080fa0000000600a9
:101990000000fa001021a90081088000f0fc2f004f
:1019a0000080600080088800c0082200600888006d
:1019b00011e1a8000080fa00000006000000fa0013
:1019c00084e0a80031058000f0ff280080806000de
:1019d00000002300008070003005880094e0a8001b
:1019e0008460a80021058000f0ff2800808060004e
:1019f0000000230000807000200588009460a8008b
:101a00008b20a90001068000f0f82f008080600084
:101a10000006200000807000000688009b20a800bf
:101a20000080fa00000006000000fa00112080008b
:101a300080ff2f00008060000010a00010208800b0
:101a4000a0b72000202088000000eb003020880094
:101a50000164a80023e4a80023c4a8001121800089
:101a600000c020000080700010218800012180004b
:101a7000f0f32f0000806000002188002003200088
:101a8000502188000000eb00602188003010200009
:101a90002021880080472200d02188002164a800ee
:101aa000e02d200030218800e02d200070218800ea
:101ab0000000eb00402188000000eb00802188003e
:101ac000f0162000b021880043e4a80043c4a80019
:101ad0001122800000c020000080700010228800c9
:101ae00001228000f0f32f000080600000228800b7
:101af00020032000502288000000eb0060228800b4
:101b0000305020002022880080472200d022880008
:101b1000e02d200030228800e02d20007022880077
:101b2000d05b200040228800d05b2000802288000b
:101b3000f0162000b022880063e4a80063c4a90066
:101b40001123800000c02000008070001023880056
:101b500001238000f0f32f00808060000008200047
:101b600000807000002388006124a8000000eb00c2
:101b7000502388000000eb0060238800c0bc2500d3
:101b8000402388000000eb00802388000000eb0069
:101b9000302388000000eb00702388003000200014
:101ba0002023880083e4a80083c4a80011248000b7
:101bb00000c02000008070001024880001248000f4
:101bc000f0f32f008080600000082000008070008b
:101bd000002488008124a8000000eb005024880025
:101be0000000eb0060248800c0252100402488000c
:101bf00070492000802488000000eb003024880019
:101c0000b0242000702488003000200020248800a8
:101c100001e4a8000080fa00000006000000fa00bd
:101c20000103a9000183a8000118800080ff2f0094
:101c3000008060000020a0000018880000e3a800d9
:101c40000083a8000203a9000223a9000243a900ff
:101c50000263a9000283a90002a3a9000323a9002b
:101c60000343a9000363a9000603a9000623a900f2
:101c70000643a9000683a90006a3a9005118800005
:101c800000fe2f0000806000e000b30050188800c4
:101c900051188000f00f2e008080600000f02000be
:101ca00000807000501888006118800000fe2f002e
:101cb00000806000f000b300601888007018800099
:101cc000f001b300701888007118800000f0210046
:101cd000008070007018880001e3a8000080fa00fe
:101ce000000006000000fa0041e5a800012a80007b
:101cf000f0f32f008080600000042000008070005e
:101d0000002a88004005a800f03f2000102a880023
:101d100045e5a800212a8000f0f32f0080806000b4
:101d20000004200000807000202a88004405a800dc
:101d3000f03f2000302a88000080fa0000000600f2
:101d40000000fa00113a8000f0fb2f0000816000d3
:101d50006004200071052000237420008049780071
:101d600081497800824978002135800000fc2f00ed
:101d7000008060000040a0002035880061378000ae
:101d8000f00f2c0080806000003020000080700088
:101d900060378800113a8000000420000081700044
:101da0006004200071052000237420008049780021
:101db000814978008249780011118000f0f32f00ea
:101dc000008060001011880041058000f0ff2800ad
:101dd00080806000000021000080700040058800c5
:101de0009560a80023e2a80023a2a9005105800065
:101df00080ff2f00008060000000a00050058800d8
:101e00009580a8002002a900001180006000b300a6
:101e10000011880020a2a9002062a9000111800001
:101e2000f0cf2f00008060000011880050012000da
:101e30004011880021e2a8002342a8000080fa0097
:101e400000000600809fbe000200fa0030118000f2
:101e5000000f78001011800066006000e00f500055
:101e6000030032002222a9002242a9001a003700f2
:101e7000a04b8000f50f500017003c00f00f200031
:101e80009e007800808f500007003600914b800044
:101e90001e00780000407800804878001000200084
:101ea000a04b88000c003700a04b8000e00f5000d2
:101eb00009003400914b8000a04b800080804000de
:101ec0001e0078000040780080487800a04b800019
:101ed0000000e800a04b88008560a9000080fa009f
:101ee0004f00be0000400600809fbe000200fa00c6
:101ef0000a003700614b8000704b8000008040007a
:101f0000104f7800704b80000000e800704b880094
:101f10009e4078000180fb0020118800704b8000fb
:101f2000e70f500005003c00111180000020200048
:101f300000806000e00f5000eeff3200704b800028
:101f4000e70f5000020034000000eb00804b8800d7
:101f50008580a9000080fa004f00be000040060006
:101f60000600fa0020079800a04b8000f50f5000f3
:101f700002003c000000eb00350037000080eb0061
:101f8000100798000000eb00000f780012003700e7
:101f90001e009000c800de001e019000f00f20001f
:101fa00000016100934b80001e007800008041001a
:101fb000104078000080fb00000069000001400034
:101fc000809c28000000410010007800008068001c
:101fd000100798001e0fe8001e007800f50f500053
:101fe000ebff34001e009000e00f500004003200b0
:101ff0000000eb00a04b88000080eb0014003700cd
:102000000000eb00000f78000b0037001e00780086
:1020100000004000ae009000808040001e0078006c
:1020200000014000a0942000000041001000780052
:10203000800878001e0fe8001e007800e90f5000ad
:10204000f2ff34000000eb00a04b8800a00020004d
:102050000080fa00000006000a00fa00400798001d
:10206000804b8000e00f5000020032000000eb00c7
:10207000380037008580a9000080eb00804b880085
:102080004e009000200798000080eb001007980099
:102090000000eb00000f7800170037002e009000c2
:1020a0001e00400090407800614798001e0090009c
:1020b000c800de001e019000f00f2000000161004a
:1020c0006e4090000080fb000000690000014000ad
:1020d000809c28000000410010007800008068000b
:1020e00010079800604b80001e004000ee409000fa
:1020f000014878001e0fe8001e007800e50f500030
:10210000e6ff3600604b8000e60040001e009000b5
:102110000040780080487800604b8000e700400075
:102120001e0090004800de000040780080487800e3
:1021300010002000704b8800604b80001040780039
:102140008080fb00001020000080700020118800bb
:10215000100020000080fa00000006000f00780048
:10216000010180000100e10008003500e197200036
:10217000cf107800cf1878001170a1008100e8001e
:102180008048eb008040a900ffff37008040a90095
:10219000ffff37000040060021982000cf10780094
:1021a000cf1878001170a1008100e8008048eb0092
:1021b0000198200022002000911811000001eb007e
:1021c000910819008060a900ffff37000040060059
:1021d000881f78004400f800080f200028028800bb
:1021e000028250004522dd00000478000b00fc0054
:1021f0009290c3002880ca0018007800400188002f
:102200001281c00040018000001c78003880cc00a2
:102210005210c3001281c0000080cd0000f0a70062
:10222000000020004400f9004f0478000000060080
:10223000881f78004400f800080f2000280288005a
:10224000028250004522dd00000478001200fc00ec
:102250009290c3002880ca001800780040018800ce
:102260001281c00040018000001c78003880cc0042
:102270005210c3001201c0000406cd00f5ff270074
:102280001281c0000480cd005290c300040c78007d
:102290001281c0000080cd004400f9004f04780096
:1022a00000000600881f78008a1f78004400f800ac
:1022b000080f20002802880000047800010578003b
:1022c000020278000500fc004618c3000a38c1006d
:1022d0000209c4001241c6000000cd0000147800bd
:1022e000020c78004400f9004f0578004f04780094
:1022f000000006006010e100040032001100090037
:102300004288d8000100300000000600f0ff2f00d6
:1023100000000600810178006010e1000400320036
:10232000110009004208d80001003000000006003a
:10233000f0ff2700828169008381d200600048009d
:10234000000006006008e10004003200010178008e
:10235000110009000280d80000000600f0ff2f00e5
:10236000000006006008e10004003200010178006e
:10237000110009000200d80000000600f0ff27004d
:10238000810068008180d2006000480000000600e3
:102390000180b900000006000100b900000006003d
:1023a0000100b800000006000180b9000080d200e2
:1023b0008180d2000080d2006080480000000600ca
:1023c0000100b9000080d2006080480000000600d3
:1023d0000100b8000080d2006080480000000600c4
:1023e0004b09de004111dd0000014100920178003f
:1023f0001202900003025200c508dd000123b9005b
:102400000683d200e0834b000380430000000600f7
:102410000000fa0000002100301088008018200021
:1024200020108800000520005010880000002900be
:10243000301088008600a9006105800080ff2f0011
:10244000008060000010a000600588009600a800d1
:102450000080fa0000000600809fbe00821f780006
:102460000200fa0041108000000c20000080600093
:10247000e00f5000080032000000210030108800fa
:102480000000eb0040108800000029003010880098
:102490000040eb007be9b700411080000002200003
:1024a00000806000e00f50000c003a000010800037
:1024b00000407800004f7800401080006400600009
:1024c000e00f500002003a0010c0b30001003700d6
:1024d00030c0b3007be9b700180037007bc9bf00ec
:1024e000e14f500006003a000010800000407800e4
:1024f0007ae9b70020c0b3007be9b7000f003700ce
:102500007bc9bf00e24f50000c003a00b14b800085
:102510007ac9bf000081fb00f003200000006100c9
:1025200080804000001080000040780080487800e3
:102530007ac9bf000040e8007ae9b7007bc9bf0054
:10254000e34f50000d003a00c14b80007ac9bf0034
:102550000081fb00f00320000000610000804000cb
:10256000104078000080fb00101088000782a8004f
:102570007ac9bf000040e8007ae9b7008600a900e8
:102580000080fa004f0178004f00be0000400600b6
:020000040000fa
:10259000c208000080000000000000007609000072
:1025a0000600000002000000c2080200090000004e
:1025b00020080000a2000000020000001d0d1d0008
:1025c0000d1d0d001d0d1d000d1d0d00f90ca200af
:1025d0000c4f0c003d0c17000c940b00790b79008c
:1025e0000b790b00730bde000a580a00de0990001d
:1025f0000990090090099000099009009009900045
:102600000990090090099000099009009009900034
:102610000990090000000000000000000000000018
:102620000076660000000400002e00003d0000005f
:102630007d401f0093020000000000000000000029
:10264000000000000000000000000000000000008a
:10265000009b00009b000000000000000000000044
:10266000000000007a0b000040eb000000000000ba
:10267000000000000000000000000000000000005a
:1026800000000000000000000000000000007a00d0
:102690000b01000000080000200000000000000006
:1026a000f00f0000100000000000000060090000b2
:1026b0000c00000000000000420900001e000000a5
:1026c000000000006c0900000a0000000200000089
:1026d00042090800000000004a0900000000000054
:1026e0007c0900000800000000000000000000005d
:020000040000fa
:0200000401f009
:04000c00f9ff0000f8
:020000040000fa
:0200000401f009
:040010005bff000092
:020000040000fa
:0200000401f009
:040014007fff00006a
:020000040000fa
:0200000401f009
:04001800ffff0000e6
:020000040000fa
:0200000401f009
:04001c00dcff000005
:00000001FF
